:10000000402B0020D5160000BD160000D1160000C0
:1000100000000000000000000000000000000000E0
:10002000000000000000000000000000BD160000FD
:100030000000000000000000BD1600005510000088
:10004000BD160000BD160000BD160000BD16000064
:10005000BD160000BD160000BD160000BD16000054
:10006000BD160000BD160000BD160000BD16000044
:10007000BD160000BD160000BD160000BD16000034
:10008000BD160000BD160000BD160000BD16000024
:10009000BD1600000000000000000000BD160000BA
:1000A000BD160000BD160000BD160000BD16000004
:1000B00000000000F8B5394D00AFAB68002B00D050
:1000C000FEE701F053FC364B1E68364BF218F8235E
:1000D0009B029A4214D8344B344A1968344C354B3D
:1000E000914238D11978344AC90702D42168914223
:1000F00031D0324B22601B68314A2D33FF331360FD
:10010000012400F041FF2F4B1C70BFF35F8F62B6DC
:1001100000F01EFC0A2001F031FC00232A4E33704F
:1001200000F0CCF9294D00280FD02B78DBB2002B42
:100130000AD1A020224A0001136001F01FFC002315
:10014000F356002B00D134702C702B78002BE7D0A5
:1001500001F068F9FCE71B78DB07DB0F0DD000230B
:10016000802223601A4B92025A6180239B011A68F5
:1001700082F30888AB603047C2E72168154A914294
:1001800001D12360BCE721680B4B9942E7D0FA20EC
:100190002260400001F020FBE1E7C04600ED00E0F6
:1001A0000420000000E0FFFFB42000007CB0EE87D8
:1001B000FC7F002038040040EF6926F0340B00205B
:1001C000380B0020A4000020D8000020DC00002014
:1001D00000440041EF6916F0202370B5364A0F2025
:1001E000D1690B43D361012234490B7813430B705F
:1001F000334B19788143197006211C7821431970FB
:1002000030490C7822430A701A7802401A70602232
:1002100019780A431A702C4B2C4A5A805A7852B2D9
:10022000002AFBDB01222A4B19780A431A709A78BC
:10023000D207FCD41F2027490A68520B0240824291
:1002400000D105221C8D244D024092012C402243F6
:100250001A850A68920C02401F2A00D1023A1F2414
:10026000188D2240A043024307201A850A68D20D48
:100270000240824200D10322198D02401748120326
:1002800001400A437F211A851A7815480A401A70DE
:10029000042219780A430C211A7058621A898A4379
:1002A0001A811A890B398A431A818022002152004F
:1002B00001F079FB70BDC046000400405844004185
:1002C0003C44004159440041000C004006400000FD
:1002D00000500041246080003FF8FFFFFF8FFFFFC8
:1002E000AC070020F7B51C00314B06005B6A0F001D
:1002F00015000193002C05D1443454432D4BE418D0
:1003000001F0A4FA63782278934210D2D51ABD4244
:1003100000D93D00002E08D0211DC9182A00300048
:1003200001F038FB63785B1963702800FEBD019B08
:10033000A1786A01D318002911D1211D19605968CB
:100340001D48890B890359605968014059601B4950
:10035000551840212879014329710121A1701449C0
:1003600000255118019116495218127AD207DCD58E
:100370005D68A278EDB22570022A04D11968201DAB
:100380002A0001F007FBBD4200D93D00002E0CD031
:100390006570211D2A00300001F0FCFA0122019B4A
:1003A000FF331A720023A370BFE76670F6E7C046FA
:1003B00000500041AC080020FF3F00F00051004118
:1003C000FF50004110B50023FFF78CFF10BDF8B5BA
:1003D00005000C0016001F00002C00D1F8BD210004
:1003E00028003B003200FFF77DFF241A2D18F3E7A9
:1003F000F8B50E001F4955014C6A2C19002B1CD072
:1004000063695B005B08636120616369B2049B0BF5
:10041000920C9B03134363616369174A8021134065
:100420006361164BEA18022313729171134AAD18D7
:100430002A7A1A42FCD03000F8BD012163695B00C2
:100440005B0F03339940B14208D8043A531E9A41D6
:100450006369D2075B005B081343D4E74427574323
:10046000074A0437BF1801003200380001F092FA41
:100470003800C9E700500041FF3F00F0FF50004145
:10048000AC08002010B50023FFF7B2FF10BD00003C
:10049000054B10B51B888B4200D90B0000221900B8
:1004A000FFF7F0FF10BDC046DE00002007B50022B8
:1004B0006B461100D81DFFF7E5FF07BDF0B597B0FB
:1004C00001F0C4F90823C44CC449A28B1A4002921B
:1004D0002FD011224020A3837833A372C0244A7006
:1004E00088714B71BE4BBF4D5A68A4052A40224308
:1004F0005A605A692A401443BB4A5C611A60BB4A7D
:10050000BB4C1A615A6814408022920222435A60FE
:100510005A68920B92035A600023B64A48711370CE
:10052000B54A1360B34B1878431E9841C0B217B058
:10053000F0BD10220B7A1342F4D0B04D0A72EE795E
:10054000AF7932023A4312B201926A469288AB887E
:1005500000926A7A287A1202104300B282B20392A1
:10056000EA7AAD7A12021543A54A15804025A54ABC
:100570004D7193422AD049D881246400A34200D10E
:10058000A3E117D8822B00D17FE108D8802B00D1BE
:100590006FE1812B00D172E120238B71C2E78022B1
:1005A00052009342F8D00222FF329342F4D1FFF777
:1005B0007DFFB7E7C024A400A342EDD00DD8A2224E
:1005C000FF32934202D0904A9342E5D100210822A3
:1005D00004A801F0E8F908216EE18C4CA342E6D0B2
:1005E0008B4CA342D8D1009B002BD5D10F3382B2C4
:1005F0001A40531E062BCFD80832774B5201D2181F
:10060000030600D45FE120235371D0E7814A93426F
:10061000CDD000D982E0804A934210D8013A93426B
:1006200000D395E0813AFF3A9342B5D1FFF73EFF00
:100630008023019A5B421343DBB2A37272E78822E4
:100640006C481201934200D111E180329342A3D150
:100650006B461B7930260370FFF728FF03239C4667
:1006600062463E33FF33E254C0225D4B5D49586C15
:1006700092050840104358644620FF3025546748CF
:1006800067461864902040002654586B8026084026
:100690001043586392204000265461481863B020EC
:1006A00040002554586F08405867B2204000265437
:1006B0003C302754FC3884469C44604667460068BA
:1006C000084010433860A620FF3025541800554FCD
:1006D000A0300760C0203027400027541F00943707
:1006E0003868084010433860C22040002654180083
:1006F0004D4F90300760E0204427400027540430DD
:10070000255426541C00C4342068D43308401043B8
:100710002060186801400A431A6003E7434A934285
:1007200000D144E705D8424A934200D13FE7414A0D
:100730003BE7414A934200D139E7404A934200D116
:10074000F8E03F4A934200D026E708213D4806E002
:100750008023009A5B009A4204D112213A48FFF7A5
:1007600097FEDFE68023009A9B009A4202D1822105
:100770003648F4E7032E2AD1032F00D90CE748228C
:10078000002104A801F00FF904AB5E70002F0AD11C
:10079000042304AA1370092204A98A70CB7004AB45
:1007A00019781800DBE72A4BBF00FC58200001F045
:1007B00002F9013004AB4000187000235A1CE35CBE
:1007C000002BECD0510004A843541300F6E70F2E81
:1007D00042D105211F48C2E700500041FF500041AF
:1007E000AC070020FFFFFF8F6C070020B00800203F
:1007F000FF3F00F0DD0000205807002068070020C0
:10080000DE000020A1030000A1020000010300009F
:1008100002030000210900008106000038090020C1
:10082000F4080020040A0020C00900202120000054
:10083000210A0000210B000021220000A1FE00007F
:10084000A121000098000020C41900000800002029
:10085000141A000000000020212E02D1092138487E
:100860007DE7222E00D097E62121364877E7012147
:1008700075E76A46128904AB1A80022191E70023CA
:10088000022104AA1380100069E76A46128904ABAA
:100890001A800F2382B21A40072A00D97CE6083258
:1008A00041335201184209D0274BD21893799B0645
:1008B0000221DB0F04AA138004A850E7224BD218B0
:1008C0009379DB06F4E710239EE6009B002B00D013
:1008D00062E60F3382B21A40531E062B00D95BE644
:1008E0005201030613D51949174BD318521820216A
:1008F000D079084200D15AE65171127A2A4200D1C9
:1009000055E64022FF331A723E3A5A714FE61020E4
:100910000E490D4BD3185218D179014200D146E649
:100920005071117A2022114200D140E6FF331A7231
:100930001F3AEAE7002304AA13800121A3E7C04677
:100940008C000020D819000000500041FF500041E9
:1009500010B5FFF741FC0022034B1A700223034A33
:1009600011780B43137010BDDD00002000500041D2
:1009700010B50C000122FFF785FD200010BD10B559
:100980000C000122FFF77EFD200010BD70B50400B1
:100990000D00FFF793FD03000020834204D00222E4
:1009A00029002000FFF70EFD70BD70B505000C009A
:1009B000FFF784FD002807D0002302222100280031
:1009C000FFF705FD200070BD0400FBE730B5030014
:1009D00020251C1AA24200DC30BD0C78002C03D06C
:1009E00001311C700133F4E71D70FBE7F8B580227C
:1009F0000C00050092000021200000F0D4FF002D23
:100A00000CD13E224E49200000F0C4FFFF235522A6
:100A10005B00E2544B4B9218E254F8BD402D33D8A2
:100A20006B1E1F2B00D9203B002B0AD110225242F3
:100A300022800F326280A280E28005322281424A07
:100A40006281F0261B025A1C581C404D404F92B246
:100A5000FF30FF36191FA94204D81100BB4200D154
:100A60003C4921803C495918B14206D83B498C4643
:100A70001100634500D1374921800132013392B220
:100A800002348342E6D1C8E7442D24D8412DC4D195
:100A90002B490B222B312000FFF798FF304E2823E3
:100AA0003500E37210357036B542B6D029002B7888
:100AB000203423776B7810396377AB780B22A377D8
:100AC000EB782000E377AB881835A3761B0AE37632
:100AD000FFF77CFFE8E72A00453A012A0BD81823E4
:100AE0005A431F4B9B18DD68280000F064FF290063
:100AF0000200200016E02B00144A473B934214D812
:100B0000184A19482260194A19026260FE225200EE
:100B1000A050636180232000DB00FC3AA361E16008
:100B20002261203000F036FF77E7114BE918114BB6
:100B30004902994200D970E780229200D9E7C04665
:100B4000241A0000FF01000004040000FF0300005D
:100B500003040000FFFF0000FCFBFFFFF3050000A3
:100B6000D01A00005546320A306FB10A57515D9EC7
:100B7000C9FBFFFFFFFF0300F8B517001E000A685E
:100B80004D4B0C009A4275D14C4B4A689A4271D138
:100B9000FE2252004A4B8A589A426BD18B68DB077F
:100BA00011D4802322695B009A420CD1E068C3B261
:100BB000002B08D1434B444AC318934203D8210069
:100BC000203100F0DBF8002E4DD0A369002B4AD075
:100BD00031683E4A8B4206D0934201D8002901D0A9
:100BE00001235B4233606369934264D80721012289
:100BF00019408A40DB08F318197AD2B2114204D1A5
:100C00000A431A72736801337360726833689A42D8
:100C100051D3002F4FD12E4B1B681E332D4A13602A
:100C200049E0FF2B47D9106015682B4B451B103549
:100C30006D029D423FD82100280000F09FF8611C02
:100C4000681CFF31FF3000F099F834E0002B32DBF4
:100C500001235B4213601E4B1E4A1B6896331360D0
:100C600000230B6027E0002F25D1194B1B682D3383
:100C7000FF33D3E719491A4B0A689A421BD9194A1C
:100C800013684428E2D9002BCEDA230021000F3369
:100C90002B311D78002D0ED101338B42F9D1124B2F
:100CA000E51829780139C9B2FD29BAD9013B9BB2AF
:100CB000013D002BF5D1F8BD5546320A57515D9ED6
:100CC000306FB10A00E0FFFFFFDF030063040000A4
:100CD000340B0020380B0020FFFF030058070020D2
:100CE0007F320200A0000020FF010000074B1A0025
:100CF000197DC907FCD52021FF311983044940081B
:100D0000D8611980137DDB07FCD570470040004196
:100D100002A5FFFF002330B59A4200D130BD9C00F0
:100D20000D5901330551F7E7F0B58025104B114EF1
:100D30005C68114FAC435C60002A00D1F0BD140028
:100D4000102A00D91024121B1E801D7DED07FCD532
:100D5000A400A44600240D59055104346445FAD179
:100D6000001909191F801C7DE407FCD5E4E7C04683
:100D70000040004144A5FFFF04A5FFFF802270B59D
:100D8000002304000D005200E958E058814203D1CD
:100D900004339342F8D170BD2000FFF7A7FF402233
:100DA00029002000FFF7C0FFF5E7F8B5030047333F
:100DB00004001A78402103000020FFF793FA00286E
:100DC00001D10020F8BD0023257923706BB2002BE0
:100DD000F7DB3F272000A61DF38F2F404830C018B7
:100DE000611D3A0000F0D6FD3F23F08F9D43C019EE
:100DF00080B2002D01D1F087E3E70023F387E1E71C
:100E0000F0B50C001F00060093B001923F25AC42E4
:100E100003DC2500002F00D140373B0002AA2B4302
:100E2000137002AB31002A00581C00F0B3FD6B4672
:100E300040211A7902A80123FFF7DAFA7619641B18
:100E4000E4D113B0F0BD030010B547331A78043174
:100E500048300023FFF7D4FF10BD0000F7B50400B1
:100E6000FFF7A3FF00283FD0230048339A88A06CE7
:100E70001A80002201385A80082862D800F080FDCC
:100E8000150521252328453C35002F4E300000F064
:100E900092FD0500200031004C302A0000F07AFD60
:100EA00029002000FFF7CFFF1EE00123E364FF339A
:100EB00023658023DB006365A0235B00A36510210D
:100EC000EFE700F0AFFC0021EBE700F0DFFCFAE712
:100ED00020000021FFF7B7FF206D1C4B984203D97B
:100EE00021005431FFF74AFFF7BD2100626D5831F0
:100EF000206DFFF70FFFE6E72000656D216D4C3098
:100F00002A00FFF707FFA900CBE727000026636D43
:100F1000256D00934C37009BB34201DC5900C0E7BC
:100F200000216B1CFF330193287800F02BFC019B00
:100F300001350100AB42F7D13880013602371D0080
:100F4000E9E701225A80BEE7301B0000FF1F0000C6
:100F500004480622030010B547331A70FFF77EFFDE
:100F600010BDC046E0000020024A53785BB2002B5F
:100F7000FBDB7047000C004010230249CA681A428C
:100F8000FCD07047000800401E21F8B50226254A13
:100F9000254C5368254D8B4333435360A660FFF7C0
:100FA000E3FF234B6360FFF7DFFFAE84FFF7E4FF4F
:100FB000204B1B689B0E3F2B00D1203B00260227B5
:100FC0001D4A9B0213431D4AEA62AB62AE84FFF7DF
:100FD000D3FF1B4BAB84FFF7CFFFAB8C3B43AB8402
:100FE000FFF7CAFF3F226388934380221F43678035
:100FF0006388D20113436380A660FFF7B5FF114BEE
:101000006360FFF7B1FFC0210F4A104B10485360D7
:10101000036A09061B021B0A0B430362072396603F
:101020001360F8BD00400041000C00400008004083
:101030000600010024608000FF01000080BB0A1C44
:10104000240500000007030010E000E0E7030000B3
:1010500000ED00E010B500F02DFC10BD10B5054C02
:1010600012220021200000F09EFCF0232370E63BBA
:10107000E37110BDA304002070B5130006000C003E
:10108000150000200A000121FFF72CF900239842E7
:1010900006D02B0022001F213000FFF723F9012387
:1010A000180070BD10B504220D210248FFF7EAF9BF
:1010B00010BDC046A500002010B50B480B49427971
:1010C000037912021A4383791B041A43C3791B065E
:1010D00013431A0A0B714A711A0C1B0E8A71CB71D9
:1010E000FFF7E0FF10BDC04684040020A5000020EB
:1010F00070B504220D00FFF7C5F9164C85420FD0DC
:10110000FFF7ACFF012304222373134B9A700022D4
:10111000DA701A715A719A711A735A73FFF7CCFF09
:10112000FFF79CFF00232373637A217A1B020B4392
:10113000A17A09040B43E17A09061943491B0B0AFA
:10114000217263720B0C090EA372E172FFF7B4FFF8
:1011500070BDC046A5000020A304002070B5194C46
:10116000002105001422200000F01DFC1649002D6E
:1011700021D022000823C87D08323F26497C314017
:101180001C2901D0B14207D11C21117012395170B4
:101190000C330539D170DBB2191C834200D9011C14
:1011A000C9B2002D0BD0023B9BB21B022380200052
:1011B000FFF79EFF70BDC87C221D0423DDE7013BC5
:1011C0002370F4E76804002084040020F7B52B4B5B
:1011D00001AA597C0700D170997C00249170D97CB8
:1011E0005170197D11706A46961C9A7D7270DB7D74
:1011F000337033889C4207D3FFF730FF0022204B27
:101200001A73FFF759FFF7BDFFF758F90028FAD016
:101210001C4D002F20D0019B2900E018FFF7E6FBB2
:101220008021042289002800FFF72CF9144A013498
:10123000517A137A09021943937A1B041943D37A1A
:101240001B060B4310495B18190A13725172190CD3
:101250001B0E9172D372CCE780213B00280005223F
:101260008900FFF7B4F8019B3A00E0182900074B0A
:10127000FFF782FC00F064FBD8E7C046840400203E
:10128000A50000206802002000FEFFFFB804002037
:10129000F0B587B0FFF75CFE484F0022052138000B
:1012A000FFF7EAFE002858D07B7A3A7A1B021A43ED
:1012B000BB7A434D1B041343FA7A002612061A43E5
:1012C0006B4601921B792B72130A6B72130CAB7273
:1012D000130EEB72FC7B1E2C1BD01ED8122C3ED0A2
:1012E00013D8B44250D0032C2ED0FFF7B7FE012301
:1012F00005222B73334B20219A7000221973DA7068
:101300001A715A719A715A7341E01A2C36D01B2CFB
:10131000EBD1FFF7A3FE2E7339E0282C3AD00BD87F
:10132000232C3BD0252CE0D1802327489B0243600F
:10133000264B082103600EE02F2CEAD05A2C21D036
:101340002A2CD2D1300026E0FB7C191C122B00D9AC
:1013500012211C48C9B2FFF7CBFE07B0F0BD1C4CF0
:101360001C49200018220830FFF730FBFB7C191CB9
:10137000242B00D92421C9B22000ECE73000FFF76C
:10138000EDFEEAE70120FAE7FFF768FE2C73FFF7AE
:1013900093FEE2E70120FFF719FFDEE70C240E4978
:1013A000220003A800F0F6FA019BA34203D92C7295
:1013B0006E72AE72EE720C2103A8CCE7840400209A
:1013C000A5000020A30400207C04002000001F3F93
:1013D000B4000020061A00008D1B000080B500AF8D
:1013E00072B6BFF35F8F0022064B1A70EFF30883CB
:1013F000054A1360036883F3088843681847BD46AD
:1014000080BDC046A4000020280B002007B50100C5
:101410000122684600F0E8F908216846FFF7A8FABB
:1014200007BD000000227A23F0B58D4985B08D4CB0
:1014300000AF22600B70FA607B60FFF729FF8A4DD6
:1014400040212800FFF7A2FA884B18603B7B2B5401
:10145000002804D000F074FA854BFA681A60854BB6
:10146000FA681D60844B1A608348804B02681B68D1
:101470009C469A42E1D27F4D29680B78FF2B37D0EA
:101480007E4E232B00D0C8E0754B1B78532B34D1F4
:10149000013202606046336801312960821A9A4243
:1014A00000D91A00764D20682A6000F073FA72485D
:1014B000296803686F4ACB18013B036010684B1E14
:1014C000C31813606D4B6F4D1B682970C9B29942E8
:1014D00003D2591A2068FFF768FAC046604B3A7980
:1014E0001A70664BFA681A60624A13680133136017
:1014F000614A136801331360B6E7522B04D1316897
:101500002068FFF73CFAE9E74F2B03D133682268E4
:101510001370E3E7482B03D1336822681380DDE7BB
:10152000572B0AD1584B22689A4202D1574800F0F3
:1015300025FA236832681A60D0E76F2B04D10121A5
:101540002068FFF715FAC9E7682B05D10221236847
:101550001B8833603000F4E7772B04D12368042123
:101560001B683360F6E7472B12D13068FFF736FF70
:10157000474B1B6883F308880121464B1970BFF362
:101580005F8F62B6444B45481B78002BA6D0D8E746
:10159000542BA3D04E2BA1D0562B02D12A21404848
:1015A000CFE7582B0CD135683E4B9D4202D9032121
:1015B0003D48C6E728000135FFF798FBFF35F3E704
:1015C000592B0ED13268394B002A04D122681A6097
:1015D00003213748B5E7920819682068FFF7A4FB94
:1015E000F6E75A2B00D079E7336800262568EB1818
:1015F000BB60BB689D4209D101212E48FFF7B8F9B5
:101600003000FFF703FF03212B489AE728783100C9
:1016100000F0B8F801350600EBE71A00303AD1B215
:10162000092904D833681B01134333605CE71A00AF
:10163000413A052A03D83268373B1201F4E71A0011
:10164000613A052A03D83268573B1201ECE72C2B8C
:1016500003D133682360FB68E7E7014A1370FAE7B8
:10166000D80A0020240B0020E00A0020D00A002025
:1016700058070020D40A0020DC0A00202C0B002090
:10168000300B0020CC0A00200CED00E00A000A001C
:10169000280B0020A400002050050020C31B0000E0
:1016A000991B0000FFFF0300C51B0000540500202C
:1016B000C91B0000CD1B0000CF1B000082B0EFF360
:1016C00005833F221340103B5BB20193019BFEE771
:1016D000FEE700002048214970B5884204D000236D
:1016E0001F4CCA18A24230D300211E4B1E4A9342FF
:1016F0002FD3FF211D4B1E4A8B43936002220C25E2
:10170000082430261B4B1C485A62C378FC398B4393
:101710001343C370C378AB432343C370174B987B09
:10172000B0430600202030439873987BA8430443BD
:101730009C73987B884302439A738023104A5168B4
:101740000B435360FEF7B6FCFEE7C5580433156043
:10175000C7E702C3CBE7C046D41B0000000000204F
:10176000DC000020DC0000203C0B0020000000001A
:1017700000ED00E0FC7000410050004100480041D5
:10178000004000410022F0B5114E7388934216D1FB
:101790000824D3019BB21DB2AC4667465D00ABB2D4
:1017A000002F02DA0B4B5D40ABB2013CA4B2002C1F
:1017B000F1D1B352802302329B009A42E8D10B0A46
:1017C00058404000305A0902484080B2F0BDC0463F
:1017D000580500202110000001230002984200D883
:1017E0007047C0460133F9E7F0B506001C2500201C
:1017F0000F270C00EC403C40002A05D1002C03D1FF
:10180000002D01D0002809D0431C9C46331820002D
:101810003030092C00DD073018706046043D2B1D68
:10182000E7D1F0BD054A064B1A60BFF34F8F054A5A
:10183000054BDA60BFF34F8FFEE7C046EF6926F035
:10184000FC7F00200400FA0500ED00E00B4A10B513
:101850001368002B0ED10A4911600A490A68013247
:101860000A6009490868002806D0824204D30B6048
:10187000FFF7D8FF013B136010BDC046640700208E
:10188000DC050000340B0020380B0020054A064B15
:101890001A60BFF34F8F054A054BDA60BFF34F8FD5
:1018A000FEE7C046EF6916F0FC7F00200400FA0551
:1018B00000ED00E01B4A10B513681B4901331360AB
:1018C0001A4A1368013313600A68002A0CD01848BA
:1018D0001018834203D180241648A40284619342E5
:1018E00001D100230B6010BDDBB2134A002B11D1D4
:1018F0008021104B890299611378104918000A3829
:10190000C0B2F02802D908784042087009785B1804
:101910001370E8E712789A42E5D18022054B9202D3
:101920005A61E0E758070020600700205C070020AC
:1019300018FCFFFF00440041D9000020D80000201F
:10194000074B084A1B681168994207D2FA21C9005F
:101950005B1813608022044B92025A617047C046A4
:101960005C07002060070020004400418022024BF9
:1019700092029A609A6170470044004170470000EB
:1019800002B4714649084900095C49008E4402BC12
:101990007047C046002310B59A4200D110BDCC5C00
:1019A000C4540133F8E703008218934200D1704712
:1019B00019700133F9E70023C25C0133002AFBD11F
:1019C000581E704712010002EF020140D016DA0CD7
:1019D00001420102030100000697FF0901A1011560
:1019E0000026FF0075089540090181029540090114
:1019F000910295010901B102C0646164616D616386
:101A000068696E6573006175746F6D61740034325E
:101A10003432000000000000F9190000061A00002E
:101A20000E1A0000EB3C90554632205546322000FD
:101A3000020101000240003E1FF8200001000100E9
:101A400000000000000000000000294200420041A8
:101A500055544F4D4154000000004641543136204A
:101A600020203C21646F63747970652068746D6C0C
:101A70003E0A3C68746D6C3E3C626F64793E3C7318
:101A800063726970743E0A6C6F636174696F6E2E65
:101A90007265706C6163652822687474703A2F2FC8
:101AA000646164616D616368696E65732E636F6DF7
:101AB0002F22293B0A3C2F7363726970743E3C2FBE
:101AC000626F64793E3C2F68746D6C3E0A000000C2
:101AD000494E464F5F55463254585400301B000063
:101AE0005C00000002000000494E444558202020C0
:101AF00048544D00621A00006B0000000300000013
:101B000043555252454E54205546320000000000C5
:101B1000000008000400000043555252454E542076
:101B200042494E000000000000E0030004040000F1
:101B300055463220426F6F746C6F61646572207617
:101B4000312E32362E302053464852420D0A4D6F08
:101B500064656C3A206175746F6D61740D0A426F33
:101B60006172642D49443A2053414D44323147312A
:101B700038412D646164616D616368696E65732DC0
:101B80006175746F6D61742D76300D0A0000000070
:101B90000800001F400200020076312E31205B4118
:101BA000726475696E6F3A58595A5D2046656220B5
:101BB000313920323031382031313A33313A32370D
:101BC0000A0D000600580A0D00590A0D005A00239C
:041BD0000A0D0000FA
:101BD400050F0500000000000902820004010080D6
:101BE4000A080B00020202010009040000010202BB
:101BF4000100052400100104240206052406000146
:101C04000524010301070583030800FF09040100FB
:101C1400020A0000000705810240000007050202D5
:101C2400400000090402000208065000070584026F
:101C340040000007050502400000090403000203F8
:101C4400000000092100010001222100070586038C
:101C540040000107050603400001000009040300D9
:101C6400020300000300000000C20100000008009D
:101C7400FFFFFFFF01555342530000000000000026
:101C840000000000008002022000000000000000AC
:101C94000000000000000000000000000000000040
:0C1CA40000000000312E303001C80000AC
:101FF000000000000000000000000000301B000096
:00000001FF
