:1000000088290020D9130000C1130000D513000077
:1000100000000000000000000000000000000000E0
:10002000000000000000000000000000C1130000FC
:100030000000000000000000C1130000650D00007A
:10004000C1130000C1130000C1130000C113000060
:10005000C1130000C1130000C1130000C113000050
:10006000C1130000C1130000C1130000C113000040
:10007000C1130000C1130000C1130000C113000030
:10008000C1130000C1130000C1130000C113000020
:10009000C11300000000000000000000C1130000B8
:1000A000C1130000C1130000C1130000C113000000
:1000B00000000000F8B5394D00AFAB68002B00D050
:1000C000FEE701F0BBFA364B1E68364BF218F823F8
:1000D0009B029A4214D8344B344A1968344C354B3D
:1000E000914238D11978344AC90702D42168914223
:1000F00031D0324B22601B68314A2D33FF331360FD
:10010000012400F0C9FD2F4B1C70BFF35F8F62B656
:1001100000F0B8FB0A2001F099FA00232A4E337050
:1001200000F0CCF9294D00280FD02B78DBB2002B42
:100130000AD1A020224A0001136001F087FA0023AF
:10014000F356002B00D134702C702B78002BE7D0A5
:1001500000F0EEFFFCE71B78DB07DB0F0DD0002380
:10016000802223601A4B92025A6180239B011A68F5
:1001700082F30888AB603047C2E72168154A914294
:1001800001D12360BCE721680B4B9942E7D0FA20EC
:100190002260400001F0A2F9E1E7C04600ED00E076
:1001A0000420000000E0FFFFB42000007CB0EE87D8
:1001B000FC7F002038040040EF6926F07C09002015
:1001C0008009002078000020AC000020B000002052
:1001D00000440041EF6916F0202370B5364A0F2025
:1001E000D1690B43D361012234490B7813430B705F
:1001F000334B19788143197006211C7821431970FB
:1002000030490C7822430A701A7802401A70602232
:1002100019780A431A702C4B2C4A5A805A7852B2D9
:10022000002AFBDB01222A4B19780A431A709A78BC
:10023000D207FCD41F2027490A68520B0240824291
:1002400000D105221C8D244D024092012C402243F6
:100250001A850A68920C02401F2A00D1023A1F2414
:10026000188D2240A043024307201A850A68D20D48
:100270000240824200D10322198D02401748120326
:1002800001400A437F211A851A7815480A401A70DE
:10029000042219780A430C211A7058621A898A4379
:1002A0001A811A890B398A431A818022002152004F
:1002B00001F0D6F970BDC04600040040584400412A
:1002C0003C44004159440041000C004006400000FD
:1002D00000500041246080003FF8FFFFFF8FFFFFC8
:1002E000F4050020F7B51C00314B06005B6A0F00D7
:1002F00015000193002C05D1443454432D4BE418D0
:1003000001F026F963782278934210D2D51ABD42C3
:1003100000D93D00002E08D0211DC9182A00300048
:1003200001F095F963785B1963702800FEBD019BAD
:10033000A1786A01D318002911D1211D19605968CB
:100340001D48890B890359605968014059601B4950
:10035000551840212879014329710121A1701449C0
:1003600000255118019116495218127AD207DCD58E
:100370005D68A278EDB22570022A04D11968201DAB
:100380002A0001F064F9BD4200D93D00002E0CD0D6
:100390006570211D2A00300001F059F90122019BEE
:1003A000FF331A720023A370BFE76670F6E7C046FA
:1003B00000500041F4060020FF3F00F000510041D2
:1003C000FF50004110B50023FFF78CFF10BDF8B5BA
:1003D00005000C0016001F00002C00D1F8BD210004
:1003E00028003B003200FFF77DFF241A2D18F3E7A9
:1003F000F8B50E001F4955014C6A2C19002B1CD072
:1004000063695B005B08636120616369B2049B0BF5
:10041000920C9B03134363616369174A8021134065
:100420006361164BEA18022313729171134AAD18D7
:100430002A7A1A42FCD03000F8BD012163695B00C2
:100440005B0F03339940B14208D8043A531E9A41D6
:100450006369D2075B005B081343D4E74427574323
:10046000074A0437BF1801003200380001F0EFF8E6
:100470003800C9E700500041FF3F00F0FF50004145
:10048000F406002010B50023FFF7B2FF10BD0000F6
:10049000054B10B51B888B4200D90B0000221900B8
:1004A000FFF7F0FF10BDC046B200002007B50022E4
:1004B0006B461100D81DFFF7E5FF07BDF0B597B0FB
:1004C00001F046F80823BD4CBD49A68B1E402DD037
:1004D000A383802311224020A372C0244A70887114
:1004E0004B71B84BB84D5A68A4052A4022435A6054
:1004F0005A692A401443B54A5C611A60B44AB54C43
:100500001A615A6814408022920222435A605A6843
:10051000920B92035A600022AF4B48711A70AE4B97
:100520001878431E9841C0B217B0F0BD10220B7A64
:100530001342F4D0A94D0A72AA79AB880092EA79E5
:10054000009801921202024312B202926A4617897F
:100550006A7A287A1202104300B282B20392EA7ACF
:10056000AD7A120215439E4A158040259D4A4D7171
:10057000934200D10CE11FD880246400A3422AD00A
:100580000AD8812B04D0822B00D1E5E0802B22D128
:1005900004AB1E80022163E081246400A34200D1E9
:1005A0003EE106D3C0229200934214D08E4A934279
:1005B00011D1FFF77BFFB2E790221201934277D06F
:1005C00013D88A4A934209D8013A934220D2813AF9
:1005D000FF3A934263D020238B71A0E78822120157
:1005E0009342F8D101217C4818E0814A934200D11E
:1005F00040E101D87F4ADAE77F4A9342D9D07F4A67
:100600009342E8D1002304AA13800121100005E0E1
:1006100080235B009F4204D112217948FFF738FF05
:100620007DE780239B009F4202D162217548F5E758
:10063000019B032B2DD14822002104A801F010F8C2
:100640006A46127904AB5A70009B002B0AD104331E
:1006500004AA1370092204A98A70CB7004AB19781C
:100660001800DBE7009B022BF8D8674A9B009C58D8
:10067000200000F0FDFF013004AB400018700023A3
:100680005A1CE35C002BE9D0510004A8435413002A
:10069000F6E7019B0F2B9ED105215C48BEE7FFF7D3
:1006A00005FF8022029B52421A43D2B2A27236E761
:1006B0006A46494B127A30261A70FFF7F7FE032379
:1006C0009C4662463E33FF33E254C0223D4B3E49D6
:1006D000586C92050840104358644620FF3025545A
:1006E0004B4867461864902040002654586B80267B
:1006F0000840104358639220400026544548186330
:10070000B02040002554586F08405867B220400080
:1007100026543C302754FC3884469C446046674647
:100720000068084010433860A620FF3025541800A8
:10073000394DA0300560C0203025400025541D00F3
:1007400094352868903301400A432A60C22252003F
:10075000A654324A1A60E2E604AB1E800F2382B22E
:100760001A40072A00D936E70832413352011842AD
:1007700009D0124BD21893799B06DB0F04AA138081
:10078000022104A84AE70D4BD2189379DB06F4E75F
:10079000002F00D01FE70F2382B21A40531E062BF2
:1007A00000D918E70832054B5201D218030602D5CA
:1007B00020235371FDE61023FBE7C04600500041A3
:1007C000FF500041F4050020FFFFFF8FB40500201B
:1007D000F8060020FF3F00F0B1000020B005002027
:1007E000B2000020020300000103000081060000A7
:1007F000A12100002120000021220000A1FE000014
:100800008016000008000020A8160000000000204C
:10081000800700203C0700204C080020080800202A
:10082000002F00D0D7E60F2382B21A40531E062BAA
:1008300000D9D0E6114B5201D218D17903060CD55C
:100840002023194200D1B4E65371117ADB18194202
:1008500000D1AEE613723E3BABE71023194200D144
:10086000A7E65371117ADB18194200D1A1E6137281
:100870001F3B9EE708210248D0E6C046FF500041DA
:100880006C00002010B5FFF7A7FC0022034B1A7084
:100890000223034A11780B43137010BDB1000020EE
:1008A0000050004110B50C000122FFF7EBFD2000C5
:1008B00010BD10B50C000122FFF7E4FD200010BDB3
:1008C00070B504000D00FFF7F9FD0300002083421E
:1008D00004D0022229002000FFF774FD70BD70B51E
:1008E00005000C00FFF7EAFD002807D000230222D4
:1008F00021002800FFF76BFD200070BD0400FBE71E
:1009000030B5030020251C1AA24200DC30BD0C7853
:10091000002C03D001311C700133F4E71D70FBE79C
:10092000F8B580220C00050092000021200000F0A4
:1009300097FE002D0CD13E224E49200000F087FE8C
:10094000FF2355225B00E2544B4B9218E254F8BD52
:10095000402D33D86B1E1F2B00D9203B002B0AD112
:100960001022524222800F326280A280E280053241
:100970002281424A6281F0261B025A1C581C404DBB
:10098000404F92B2FF30FF36191FA94204D8110020
:10099000BB4200D13C4921803C495918B14206D89C
:1009A0003B498C461100634500D137492180013213
:1009B000013392B202348342E6D1C8E7442D24D8F1
:1009C000412DC4D12B490B222B312000FFF798FF7A
:1009D000304E28233500E37210357036B542B6D05C
:1009E00029002B78203423776B7810396377AB7824
:1009F0000B22A377EB782000E377AB881835A3763A
:100A00001B0AE376FFF77CFFE8E72A00453A012A54
:100A10000BD818235A431F4B9B18DD68280000F0A1
:100A200027FE29000200200016E02B00144A473B55
:100A3000934214D8184A19482260194A1902626070
:100A4000FE225200A050636180232000DB00FC3AAC
:100A5000A361E1602261203000F0F9FD77E7114BDE
:100A6000E918114B4902994200D970E7802292009F
:100A7000D9E7C046B4160000FF01000004040000DE
:100A8000FF03000003040000FFFF0000FCFBFFFF6A
:100A9000F3050000601700005546320A306FB10AB6
:100AA00057515D9EC9FBFFFFFFFF0300F8B517001C
:100AB0001E000A683B4B0C009A4264D13A4B4A68CC
:100AC0009A4260D1FE225200384B8A589A425AD13B
:100AD0008B68DB0711D4802322695B009A420CD11A
:100AE000E068C3B2002B08D1314B324AC31893429D
:100AF00003D82100203100F0A7F8002E3CD0A369D4
:100B0000002B39D031682C4A8B4206D0934201D851
:100B1000002901D001235B423360636993422AD8E4
:100B20000721012219408A40DB08F318197AD2B252
:100B3000114204D10A431A727368013373607268F8
:100B400033689A4217D3002F15D125E01A68002A7E
:100B500000DA18601D68194B451B10356D029D4267
:100B600009D82100280000F06FF8611C681CFF31D3
:100B7000FF3000F069F8F8BD002FFCD1104B1B6866
:100B80002D33FF330BE00F4B4428DFD81A68002ABF
:100B9000F1DB012252421A60094B1B681E330A4ADC
:100BA0001360E8E75546320A57515D9E306FB10A2F
:100BB00000E0FFFFFFDF030063040000FFFF03000E
:100BC0007C0900207400002080090020074B1A00D7
:100BD000197DC907FCD52021FF311983044940083C
:100BE000D8611980137DDB07FCD5704700400041B8
:100BF00002A5FFFFF0B58025104B114E5C68114F28
:100C0000AC435C60002A00D1F0BD1400102A00D96A
:100C10001024121B1E801D7DED07FCD5A400A446E8
:100C200000240D59055104346445FAD100190919FD
:100C30001F801C7DE407FCD5E4E7C046004000416E
:100C400044A5FFFF04A5FFFF802270B50023040028
:100C50000D005200E958E058814203D10433934219
:100C6000F8D170BD2000FFF7B1FF4022290020001D
:100C7000FFF7C0FFF5E70000024A53785BB2002B94
:100C8000FBDB7047000C004010230249CA681A427F
:100C9000FCD07047000800401E21F8B50226254A06
:100CA000254C5368254D8B4333435360A660FFF7B3
:100CB000E3FF234B6360FFF7DFFFAE84FFF7E4FF42
:100CC000204B1B689B0E3F2B00D1203B00260227A8
:100CD0001D4A9B0213431D4AEA62AB62AE84FFF7D2
:100CE000D3FF1B4BAB84FFF7CFFFAB8C3B43AB84F5
:100CF000FFF7CAFF3F226388934380221F43678028
:100D00006388D20113436380A660FFF7B5FF114BE0
:100D10006360FFF7B1FFC0210F4A104B10485360CA
:100D2000036A09061B021B0A0B4303620723966032
:100D30001360F8BD00400041000C00400008004076
:100D40000600010024608000FF01000080BB0A1C37
:100D5000240500000007030010E000E0E7030000A6
:100D600000ED00E010B500F013FC10BD10B5054C0F
:100D700012220021200000F073FCF0232370E63BD8
:100D8000E37110BDEF02002070B5130006000C00E7
:100D9000150000200A000121FFF7A4FA0023984261
:100DA00006D02B0022001F213000FFF79BFA012301
:100DB000180070BD10B504220D210248FFF762FB38
:100DC00010BDC0467900002010B50B480B49427990
:100DD000037912021A4383791B041A43C3791B0651
:100DE00013431A0A0B714A711A0C1B0E8A71CB71CC
:100DF000FFF7E0FF10BDC046D002002079000020C0
:100E000070B504220D00FFF73DFB164C85420FD054
:100E1000FFF7ACFF012304222373134B9A700022C7
:100E2000DA701A715A719A711A735A73FFF7CCFFFC
:100E3000FFF79CFF00232373637A217A1B020B4385
:100E4000A17A09040B43E17A09061943491B0B0AED
:100E5000217263720B0C090EA372E172FFF7B4FFEB
:100E600070BDC04679000020EF02002070B5194C1B
:100E7000002105001422200000F0F2FB1649002D8D
:100E800021D022000823C87D08323F26497C31400A
:100E90001C2901D0B14207D11C21117012395170A7
:100EA0000C330539D170DBB2191C834200D9011C07
:100EB000C9B2002D0BD0023B9BB21B022380200045
:100EC000FFF79EFF70BDC87C221D0423DDE7013BB8
:100ED0002370F4E7B4020020D0020020F7B52B4BBA
:100EE00001AA597C0700D170997C00249170D97CAB
:100EF0005170197D11706A46961C9A7D7270DB7D67
:100F0000337033889C4207D3FFF730FF0022204B19
:100F10001A73FFF759FFF7BDFFF7D0FA0028FAD090
:100F20001C4D002F20D0019B2900E018FFF7F8FC92
:100F30008021042289002800FFF7A4FA144A013412
:100F4000517A137A09021943937A1B041943D37A0D
:100F50001B060B4310495B18190A13725172190CC6
:100F60001B0E9172D372CCE780213B002800052232
:100F70008900FFF72CFA019B3A00E0182900074B83
:100F8000FFF794FD00F044FBD8E7C046D0020020F4
:100F900079000020B400002000FEFFFF04030020C1
:100FA000F0B5494F87B0002205213800FFF7ECFE6D
:100FB000002858D07B7A3A7A1B021A43BB7A434DF9
:100FC0001B041343FA7A002612061A436B46019259
:100FD0001B792B72130A6B72130CAB72130EEB722C
:100FE000FC7B1E2C1BD01ED8122C3ED013D8B44232
:100FF00050D0032C2ED0FFF7B9FE012305222B730E
:10100000334B20219A7000221973DA701A715A71C9
:101010009A715A7341E01A2C36D01B2CEBD1FFF792
:10102000A5FE2E7339E0282C3AD00BD8232C3BD0C8
:10103000252CE0D1802327489B024360264B0821C2
:1010400003600EE02F2CEAD05A2C21D02A2CD2D1CA
:10105000300026E0FB7C191C122B00D912211C4801
:10106000C9B2FFF7CDFE07B0F0BD1C4C1C492000F3
:1010700018220830FFF744FCFB7C191C242B00D9F4
:101080002421C9B22000ECE73000FFF7EFFEEAE7C9
:101090000120FAE7FFF76AFE2C73FFF795FEE2E7FF
:1010A0000120FFF71BFFDEE70C240E49220003A8F6
:1010B00000F0CDFA019BA34203D92C726E72AE727E
:1010C000EE720C2103A8CCE7D002002079000020AA
:1010D000EF020020C802002000001F3F880000200F
:1010E0009F1600001C18000080B500AF72B6BFF359
:1010F0005F8F0022064B1A70EFF30883054A1360D6
:10110000036883F3088843681847BD4680BDC0461E
:10111000780000207009002007B501000122684610
:1011200000F0E4F908216846FFF7BCFB07BD0000AA
:1011300000227A23F0B58C4985B08C4C00AF226038
:101140000B70FA607B60FFF72BFF894D4021280070
:10115000FFF7B6FB874B18603B7B2B54002801D070
:1011600000F056FA844BFA681D60844B1A6083487D
:10117000804B02681B689C469A42E4D27E4D2968E7
:101180000B78FF2B37D07E4E232B00D0C8E0764B58
:101190001B78532B34D10132026060463368013131
:1011A0002960821A9A4200D91A00764D20682A6076
:1011B00000F04DFA7148296803686F4ACB18013B6B
:1011C000036010684B1EC31813606D4B6E4D1B6897
:1011D0002970C9B2994203D2591A2068FFF77FFBE0
:1011E000C046614B3A791A70654BFA681A60624AD8
:1011F000136801331360614A136801331360B6E763
:10120000522B04D131682068FFF753FBE9E74F2BDD
:1012100003D1336822681370E3E7482B03D13368A6
:1012200022681380DDE7572B0AD1584B22689A4277
:1012300002D1574800F00AFA236832681A60D0E7F2
:101240006F2B04D101212068FFF72CFBC9E7682B25
:1012500005D1022123681B8833603000F4E7772B27
:1012600004D1236804211B683360F6E7472B12D1B1
:101270003068FFF739FF474B1B6883F3088801216B
:10128000454B1970BFF35F8F62B6444B44481B78DF
:10129000002BA6D0D8E7542BA3D04E2BA1D0562B91
:1012A00002D12A213F48CFE7582B0CD135683E4B5D
:1012B0009D4202D903213D48C6E728000135FFF7CA
:1012C00085FCFF35F3E7592B0ED13268384B002AE5
:1012D00004D122681A6003213648B5E792081968DC
:1012E0002068FFF787FCF6E75A2B00D079E73368D0
:1012F00000262568EB18BB60BB689D4209D101211F
:101300002D48FFF7CFFA3000FFF706FF03212B48E7
:101310009AE72878310000F0B7F801350600EBE7CE
:101320001A00303AD1B2092904D833681B0113439B
:1013300033605CE71A00413A052A03D83268373B2C
:101340001201F4E71A00613A052A03D83268573BC4
:101350001201ECE72C2B03D133682360FB68E7E72D
:10136000014A1370FAE7C046200900206C090020EA
:1013700028090020180900201C0900202409002049
:101380007409002078090020140900200CED00E009
:101390000A000A0070090020780000209C03002049
:1013A0005218000028180000FFFF03005418000026
:1013B000A0030020581800005C1800005E18000010
:1013C00082B0EFF305833F221340103B5BB20193E1
:1013D000019BFEE7FEE700002048214970B58842E6
:1013E00004D000231F4CCA18A24230D300211E4B48
:1013F0001E4A93422FD3FF211D4B1E4A8B439360FD
:1014000002220C25082430261B4B1C485A62C37844
:10141000FC398B431343C370C378AB432343C3707E
:10142000174B987BB0430600202030439873987B7D
:10143000A84304439C73987B884302439A73802398
:10144000104A51680B435360FEF734FEFEE7C5585F
:1014500004331560C7E702C3CBE7C0466418000039
:1014600000000020B0000020B0000020840900200F
:101470000000000000ED00E0FC7000410050004161
:1014800000480041004000410022F0B5114E738831
:10149000934216D10824D3019BB21DB2AC466746D5
:1014A0005D00ABB2002F02DA0B4B5D40ABB2013CEA
:1014B000A4B2002CF1D1B352802302329B009A4295
:1014C000E8D10B0A58404000305A0902484080B227
:1014D000F0BDC046A403002021100000012300023B
:1014E000984200D87047C0460133F9E7F0B50600CE
:1014F0001C2500200F270C00EC403C40002A05D1A1
:10150000002C03D1002D01D0002809D0431C9C469B
:10151000331820003030092C00DD07301870604689
:10152000043D2B1DE7D1F0BD054A064B1A60BFF301
:101530004F8F054A054BDA60BFF34F8FFEE7C04679
:10154000EF6926F0FC7F00200400FA0500ED00E0C2
:101550000B4A10B51368002B0ED10A4911600A49D5
:101560000A6801320A6009490868002806D08242E8
:1015700004D30B60FFF7D8FF013B136010BDC046DA
:10158000AC050020DC0500007C090020800900205B
:10159000194A1A49136810B5013313600A68002A02
:1015A0000CD017481018834203D180241548A40298
:1015B0008461934201D100230B6010BDDBB2124A5B
:1015C000002B11D180210F4B8902996113780F49AB
:1015D00018000A38C0B2F02802D9087840420870D2
:1015E00009785B181370E8E712789A42E5D18022F7
:1015F000044B92025A61E0E7A4050020A8050020F0
:1016000018FCFFFF00440041AD000020AC000020AA
:10161000074B084A1B681168994207D2FA21C90092
:101620005B1813608022044B92025A617047C046D7
:10163000A4050020A8050020004400418022024BA0
:1016400092029A609A6170470044004170470023FB
:1016500010B59A4200D110BDCC5CC4540133F8E7F8
:1016600003008218934200D1704719700133F9E7E3
:101670000023C25C0133002AFBD1581E70470000D2
:1016800012010002EF020140D016DA0C0142010201
:101690000001646164616D616368696E6573006116
:1016A00075746F6D617400000000000092160000F8
:1016B0009F160000EB3C90554632205546322000E4
:1016C000020101000240003E1FF82000010001005D
:1016D000000000000000000000002942004200411C
:1016E00055544F4D415400000000464154313620BE
:1016F00020203C21646F63747970652068746D6C80
:101700003E0A3C68746D6C3E3C626F64793E3C738B
:1017100063726970743E0A6C6F636174696F6E2ED8
:101720007265706C6163652822687474703A2F2F3B
:10173000646164616D616368696E65732E636F6D6A
:101740002F22293B0A3C2F7363726970743E3C2F31
:10175000626F64793E3C2F68746D6C3E0A00000035
:10176000494E464F5F55463254585400C01700004A
:101770005B00000002000000494E44455820202034
:1017800048544D00F21600006B00000003000000FA
:1017900043555252454E5420554632000000000039
:1017A000000008000400000043555252454E5420EA
:1017B00042494E000000000000E003000404000065
:1017C00055463220426F6F746C6F6164657220768B
:1017D000312E32342E3020534652420D0A4D6F6462
:1017E000656C3A206175746F6D61740D0A426F61AA
:1017F00072642D49443A2053414D443231473138C7
:10180000412D646164616D616368696E65732D610A
:1018100075746F6D61742D76300D0A00000000083C
:1018200000001F400200020076312E31205B417221
:101830006475696E6F3A58595A5D20446563203269
:101840003320323031372031353A33373A32310AAA
:101850000D000600580A0D00590A0D005A00230A0F
:041860000D00000077
:10186400050F05000000000009026200030100806A
:101874000A080B000202020100090400000102022E
:1018840001000524001001042402060524060001B9
:101894000524010301070583030800FF090401006F
:1018A400020A000000070581024000000705020249
:1018B40040000009040200020806500007058402E3
:1018C40040000007050502400000000000C20100BE
:1018D40000000800FFFFFFFF0155534253000000C2
:1018E4000000000000000000008002022000000050
:1018F40000000000000000000000000000000000E4
:101904000000000000000000312E303001C800004B
:101FF000000000000000000000000000C01700000A
:00000001FF
